:020000040000fa
:080000000001040000000000f3
:020000040000fa
:04000800e201000011
:020000040000fa
:04000c00e20100000d
:020000040000fa
:04001000e201000009
:020000040000fa
:04001400e201000005
:020000040000fa
:04001800e201000001
:020000040000fa
:04001c00e2010000fd
:020000040000fa
:04002000e2010000f9
:020000040000fa
:04002400e2010000f5
:020000040000fa
:04002800e2010000f1
:020000040000fa
:04002c00e2010000ed
:020000040000fa
:04003000e2010000e9
:020000040000fa
:04003400c8010000ff
:020000040000fa
:04003800e2010000e1
:020000040000fa
:04003c00e2010000dd
:020000040000fa
:04004000e2010000d9
:020000040000fa
:04004400e2010000d5
:020000040000fa
:04004800e2010000d1
:020000040000fa
:04004c00e2010000cd
:020000040000fa
:04005000e2010000c9
:020000040000fa
:04005400e2010000c5
:020000040000fa
:04005800e2010000c1
:020000040000fa
:04005c00e2010000bd
:020000040000fa
:04006000e2010000b9
:020000040000fa
:04006400e2010000b5
:020000040000fa
:04006800e2010000b1
:020000040000fa
:04006c00e2010000ad
:020000040000fa
:04007000e2010000a9
:020000040000fa
:04007400e2010000a5
:020000040000fa
:04007800e2010000a1
:020000040000fa
:04007c00e20100009d
:020000040000fa
:04008000e201000099
:020000040000fa
:04008400e201000095
:020000040000fa
:04008800e201000091
:020000040000fa
:04008c00e20100008d
:020000040000fa
:04009000e201000089
:020000040000fa
:04009400e201000085
:020000040000fa
:04009800e201000081
:020000040000fa
:04009c00e20100007d
:020000040000fa
:0400a000e201000079
:020000040000fa
:0400a400e201000075
:020000040000fa
:0400a800e201000071
:020000040000fa
:0400ac00e20100006d
:020000040000fa
:0400b000e201000069
:020000040000fa
:0400b400e201000065
:020000040000fa
:0400b800e201000061
:020000040000fa
:0400bc00e20100005d
:020000040000fa
:0400c000e201000059
:020000040000fa
:0400c400e201000055
:020000040000fa
:0400c800e201000051
:020000040000fa
:0400cc00e20100004d
:020000040000fa
:0400d000e201000049
:020000040000fa
:0400d400e201000045
:020000040000fa
:0400d800e201000041
:020000040000fa
:04010800e201000010
:020000040000fa
:04010c00e20100000c
:020000040000fa
:04011000e201000008
:020000040000fa
:04011400e201000004
:020000040000fa
:04011800e201000000
:020000040000fa
:04011c00e2010000fc
:020000040000fa
:04012000e2010000f8
:020000040000fa
:04012400e2010000f4
:020000040000fa
:04012800e2010000f0
:020000040000fa
:04012c00e2010000ec
:020000040000fa
:04013000e2010000e8
:020000040000fa
:04013400e2010000e4
:020000040000fa
:04013800e2010000e0
:020000040000fa
:04013c00e2010000dc
:020000040000fa
:04014000e2010000d8
:020000040000fa
:04014400e2010000d4
:020000040000fa
:04014800e2010000d0
:020000040000fa
:04014c00e2010000cc
:020000040000fa
:04015000e2010000c8
:020000040000fa
:04015400e2010000c4
:020000040000fa
:04015800e2010000c0
:020000040000fa
:04015c00e2010000bc
:020000040000fa
:04016000e2010000b8
:020000040000fa
:04016400e2010000b4
:020000040000fa
:04016800e2010000b0
:020000040000fa
:04016c00e2010000ac
:020000040000fa
:04017000e2010000a8
:020000040000fa
:04017400e2010000a4
:020000040000fa
:04017800e2010000a0
:020000040000fa
:04017c00e20100009c
:020000040000fa
:04018000e201000098
:020000040000fa
:04018400e201000094
:020000040000fa
:04018800e201000090
:020000040000fa
:04018c00e20100008c
:020000040000fa
:04019000e201000088
:020000040000fa
:04019400e201000084
:020000040000fa
:04019800e201000080
:020000040000fa
:04019c00e20100007c
:020000040000fa
:0401a000e201000078
:020000040000fa
:0401a400e201000074
:020000040000fa
:0401a800e201000070
:020000040000fa
:0401ac00e20100006c
:020000040000fa
:0401b000e201000068
:020000040000fa
:0401b400e201000064
:020000040000fa
:0401b800e201000060
:020000040000fa
:0401bc00e20100005c
:020000040000fa
:0401c000e201000058
:020000040000fa
:0401c400e201000054
:020000040000fa
:0401c800e201000050
:020000040000fa
:0401cc00e20100004c
:020000040000fa
:0401d000e201000048
:020000040000fa
:0401d400e201000044
:020000040000fa
:0401d800e201000040
:020000040000fa
:100200002f8020000eff20000e018800000000005b
:10021000000020000000e000020032000001200089
:100220002002880014000700680007000000e000ba
:1002300003003a00c0242000010020000200370023
:100240000000200001002000810f7000010032003a
:1002500014000700000020000000e000020032004f
:100260000000020000000000e801020000000000a1
:100270000040da000000fe004440a9000000200019
:100280000000e0000300320000002000a001880010
:100290004440a800000006008a1f78008b1f7800e9
:1002a0000000060091018800800478000000eb0047
:1002b0001a003700e284440032a0b4009905ba0065
:1002c000e284440032a0b4009906ba00e2844400fb
:1002d00032a0b4000006eb00476fde00fd07b2005d
:1002e000636ce10003003a00ebff07000000eb0045
:1002f0000a003700606ce10004003a00005deb008a
:100300008b05e900fdff3e00040037006168e10055
:10031000010032000086eb000b00070019c7ba008d
:100320001905ba000e04e00003003a000a00e000dc
:10033000e0ff3a0000000600fe07b2009e018800c0
:100340008a047800f5ff3700395dba008b05e900b3
:100350000c003200295dba008b05e900080032006c
:100360000c00e00003003a00e284440032a0b40034
:10037000f5ff370019ddba008b05e900faff3a00f6
:100380008904e800e184440032a0b40000000600c3
:10039000801f78003400f80000002000a0018800d1
:1003a0000000fa00004080000000e80000408800e3
:1003b0008460a9000080fa003400f9004f00780042
:1003c000004006000040da000000fe0000000500ca
:020000040000fa
:1003d0000000fa001a000700d202a900030037004b
:1003e0000000000001003700000000000140800014
:1003f00040062000808f500006003600a0168000c6
:10040000610060000000e00002003a00d602a8008f
:100410000028ef000140800040062000808f50003f
:10042000efff3600a0168000610060000000e000d1
:10043000edff3200d602a9000028ef00ebff3700e5
:100440000000fa0004c1a90021088000f0fc2f0080
:10045000008060000050a000200888000441a9002e
:100460000421a900e0042000100888008c60a80086
:10047000a1048000f0ff28008080600000002600ba
:1004800001007000a00488008460a90005e1a800b4
:080490000080fa0000000600e4
:020000040000fa
:10049800000800000200000000000000000000004a
:020000040000fa
:0200000401f009
:04000000f2bf00004b
:020000040000fa
:0200000401f009
:04000400ff7f00007a
:020000040000fa
:0200000401f009
:04000800ffff0000f6
:020000040000fa
:0200000401f009
:04001400ffff0000ea
:020000040000fa
:0200000401f009
:04001800ffff0000e6
:00000001FF
